:020000040800F2
:10000000E02C0020952E0008F12E0008F12E0008AB
:10001000F12E0008F12E0008F12E0008000000006B
:10002000000000000000000000000000F12E0008A9
:10003000F12E000800000000F12E000859170008FA
:10004000F12E0008F12E0008F12E0008F12E000814
:10005000F12E0008F12E0008F12E0008F12E000804
:10006000F12E0008F12E0008F12E0008F12E0008F4
:10007000F12E0008F12E0008F12E0008F12E0008E4
:10008000F12E0008F12E0008F12E0008F12E0008D4
:10009000955D0008F12E0008F12E0008F12E0008F1
:1000A000F12E0008F12E0008F12E0008F12E0008B4
:1000B000F12E0008F12E0008F12E0008F12E0008A4
:1000C000F12E0008F12E0008F12E0008F12E000894
:1000D000F12E0008F12E0008F12E0008552E000820
:1000E000F12E0008F12E0008A96D0008F12E00087D
:1000F000F12E0008F12E0008F12E0008F12E000864
:10010000F12E0008F12E0008F12E0008F12E000853
:10011000F12E0008F12E0008F12E0008F12E000843
:10012000F12E0008F12E0008F12E0008F12E000833
:10013000F12E0008F12E0008F12E0008F12E000823
:100140009D640008F12E0008F12E0008B96D00082A
:10015000F12E0008F12E0008F12E0008F12E000803
:10016000F12E0008F12E0008F12E0008F12E0008F3
:10017000F12E0008F12E0008F12E0008F12E0008E3
:10018000F12E0008F12E000880B485B000AF0346C0
:100190003960FB80FB887F2B02D8FB88FB8125E040
:1001A0003B68002B0BD0FB88FF2B05D8FB88803BDE
:1001B000114A32F8133000E00023FB8116E00023DF
:1001C000FB8109E0FB890C4A32F81330FA889A4225
:1001D00006D0FB890133FB81FB897F2BF2D900E03C
:1001E00000BFFB8980339BB2DBB2FB81FB891846E1
:1001F0001437BD4680BC7047CC20010880B485B060
:1002000000AF0346FB800023FB6002E0FB68013384
:10021000FB600F4AFB6832F81330002B06D00C4A03
:10022000FB6832F81330FA889A42EFD1084AFB682B
:1002300032F81330002B04D0064AFB6832F8133032
:1002400000E0FB8818461437BD4680BC704700BFED
:10025000CC210108AC23010880B485B000AF7860E0
:100260000023FB607B68DB684FF0FF325A607B68DD
:10027000DB686FF080425A61FB7B43F08003FB73C5
:100280007B7B43F008037B737B68DB68FA689A61C9
:1002900000BF1437BD4680BC704700BF80B586B034
:1002A00000AF78600023FB7400237B610023FB60B8
:1002B000032006F045FD7B68DB681B69FB607B69FA
:1002C00001337B617B69184A934201D9002326E000
:1002D000FB68C3F3C073DBB2002BE9D000237B6162
:1002E000FB6843F00103FB607B68DB68FA681A6116
:1002F0007B68DB681B69FB607B6901337B617B6921
:10030000094A934206D8FB68C3F30003DBB2012B12
:10031000EED000E000BF032006F012FDFB7C184683
:100320001837BD4680BD00BF400D030080B489B0C2
:1003300000AFF860B96011461A460B46FB711346D0
:10034000BB800023FB76FB68DB78002B22D10023E7
:100350007B610023FB61BB880333002B00DA03338E
:100360009B107B61FB79FA6832339B0013449B68D6
:100370003B610023FB6109E0BB681A683B691A60B6
:10038000FB690133FB61BB680433BB60FA697B69BD
:100390009A42F1D3FB7E18462437BD4680BC704795
:1003A00080B489B000AFF860B9601346FB800023C9
:1003B000FB61FB880333002B00DA03339B10BB6126
:1003C000FB68D3F8D0307B610023FB6109E07B69D7
:1003D0001A68BB681A60FB690133FB61BB680433B0
:1003E000BB60FA69BB699A42F1D3BB6818462437EF
:1003F000BD4680BC704700BF80B487B000AF786056
:100400000B46FB7000233B610023FB737B680022DB
:10041000DA707B6801229A707B6840229A80FB78B0
:10042000012B13D14FF0A0433B617B680122DA72AC
:100430007B6808221A707B6804225A707B684FF42C
:10044000A072DA807B6802221A7211E0FB78002B1E
:100450000ED1454B3B617B680022DA727B680C222F
:100460001A707B6806225A707B684FF4A062DA80AB
:100470003A697B68DA603B6903F500631A467B687A
:100480001A6100237B611CE07B695A013B691344BC
:1004900003F5106319467A687B6904339B001344A3
:1004A00099607B695A013B69134403F5306319462F
:1004B0007A687B6914339B00134459607B6901336C
:1004C0007B617B685B781A467B699A42DCD83B6922
:1004D00003F580631A467B685A613B6903F58863BC
:1004E0001A467B68C3F8CC2000237B610FE07B6950
:1004F0005A013B69134403F5A06319467A687B6986
:1005000022339B00134499607B6901337B617B68D4
:100510001B781A467B699A42E9D800237B610FE079
:100520007B691A033B69134403F5805319467A68C3
:100530007B6932339B00134499607B6901337B6193
:100540007B681B781A467B699A42E9D83B6903F5B8
:1005500060631A467B68C3F80C21FB7B18461C3786
:10056000BD4680BC704700BF0000044080B586B027
:1005700000AF78600023FB7500233B610023FB6024
:100580000023BB607B681B7A012B42D17B68DB6850
:100590009B6BFB60BB7B6FF30003BB737B685B7A79
:1005A000002B03D0BB7B43F01003BB737B68DB687D
:1005B000FA689A6300233B617B68DB68DB683B6118
:1005C0003B7C6FF386133B74BB7C6FF38613BB7469
:1005D000BB7C6FF34103BB74BB7C6FF3C303BB7481
:1005E0007B68DB683A69DA607868FFF757FE7B68FA
:1005F000DB78012B3DD13B7A052262F344033B7249
:100600003B7A43F020033B727B68DB68BA689A60F0
:100610002FE07B68DB68DB683B613B7C43F0400399
:100620003B747B68DB683A69DA607868FFF736FE0E
:100630000023FB60BB7B43F00103BB73BB7B43F038
:100640000403BB73BB7B43F00803BB73BB7B43F06A
:100650002003BB737B685B7A002B03D0BB7B43F02A
:100660001003BB737B68DB68FA689A63142006F09A
:100670008BFB7B68DB78012B10D17B68DB689B6888
:10068000BB603B7A052262F344033B723B7A43F042
:1006900020033B727B68DB68BA689A60FB7D184672
:1006A0001837BD4680BD00BF80B485B000AF78600C
:1006B0000023FB730023BB603B7A43F001033B72D2
:1006C0007B68DB687A68D2689168BA680A439A6086
:1006D000FB7B18461437BD4680BC704780B485B09C
:1006E00000AF78600023FB730023BB603B7A43F0CC
:1006F00001033B727B68DB687A68D2689168BA68EC
:10070000D2430A409A60FB7B18461437BD4680BC32
:10071000704700BF80B586B000AF786039600023B5
:10072000FB7400237B610023FB60FB6843F0200324
:10073000FB603B68DBB203F01F03DAB2FB6862F3D5
:100740008A13FB607B68DB68FA681A617B68DB6888
:100750001B69FB607B6901337B617B69094A9342BA
:1007600006D8FB68C3F34013DBB2012BEED000E0E8
:1007700000BF032006F0E4FAFB7C18461837BD469C
:1007800080BD00BF400D030080B586B000AF78602B
:100790000023FB7400237B610023FB60FB6843F0B4
:1007A0001003FB607B68DB68FA681A617B68DB68B2
:1007B0001B69FB607B6901337B617B69094A93425A
:1007C00006D8FB68C3F30013DBB2012BEED000E0C8
:1007D00000BF032006F0B4FAFB7C18461837BD466C
:1007E00080BD00BF400D030080B584B000AF7860CD
:1007F0000B46FB700023FB737B68DB68DB68BB6028
:10080000FB7A6FF34513FB72FB7A6FF38613FB726F
:10081000FB78012B04D1FB7A43F02003FB7206E046
:10082000FB78002B03D1FB7A43F04003FB727B681B
:10083000DB68BA68DA60322006F0A6FAFB7B18465D
:100840001037BD4680BD00BF80B483B000AF786074
:100850007B68DB685B6903F0010318460C37BD4613
:1008600080BC704780B582B000AF78607868FFF7D1
:10087000EBFF0346012B14BF01230023DBB2184614
:100880000837BD4680BD00BF80B485B000AF78603A
:100890000023FB607B68DB685B69FB607B68DB686F
:1008A0009B69FA681340FB60FB6818461437BD4625
:1008B00080BC704780B485B000AF78600B46FB7099
:1008C0007B681B691B68FB60FB7803F00303DAB2EB
:1008D0003B7B62F301033B737B681B69FA681A6018
:1008E00000BF1437BD4680BC704700BF80B58CB0D8
:1008F00000AF7860002387F82B3000237B62002351
:100900003B620023FB610023BB6100237B617B68AA
:10091000D3F80C3100221A607B681B691B683B62AC
:1009200097F821306FF3C40387F821307B681B6987
:100930003A6A1A607B68DB7A012B33D1032178682D
:10094000FFF7B8FF7B68DB6880225A622023FB83B5
:100950008023BB837B68DB68FA699A62BA8BFB8B66
:1009600013449BB23B8380237B837B68DB68BA693B
:10097000C3F804213A8B7B8B13449BB23B83202327
:100980007B837B68DB68BA69C3F808213A8B7B8B71
:1009900013449BB23B8300237B837B68DB68BA698B
:1009A000C3F80C2110217868FFF7B4FE7868FFF7D0
:1009B000EBFE7B681B6900221A617B681B690022C1
:1009C0005A617B681B694FF0FF329A617B681B6933
:1009D0000022DA610023FB623AE07A68FB6A0433A2
:1009E0009B0013449B681B687B6297F8273023F0B9
:1009F0007F03DBB2002B0ED000237B6297F82730F9
:100A000043F0400387F8273097F8273043F0080376
:100A100087F8273001E000237B627A68FB6A0433A1
:100A20009B0013449B687A6A1A607A68FB6A0433F5
:100A30009B0013449B6800221A617A68FB6A0433A6
:100A40009B0013449B68FF229A60FB6A0133FB62A0
:100A50007B685B781A46FB6A9A42BED80023FB6229
:100A600035E07A68FB6A14339B0013445B681B68AB
:100A7000FB60FB7B23F07F03DBB2002B0AD000235B
:100A8000FB60FB7B43F04003FB73FB7B43F00803FD
:100A9000FB7301E00023FB607A68FB6A14339B0060
:100AA00013445B68FA681A607A68FB6A14339B0027
:100AB00013445B6800221A617A68FB6A14339B0056
:100AC00013445B68FF229A60FB6A0133FB627B6818
:100AD0005B781A46FB6A9A42C3D800237B617B7D10
:100AE00043F001037B757B681B697A6812691169A1
:100AF0007A69D24311407A690A431A617B68DB78CC
:100B0000012B1BD100233B613B7C43F001033B7471
:100B10003B7C43F002033B743B8A402262F38A032E
:100B20003B82BB7C43F00103BB747B8A402262F3AF
:100B300049037B827B681B693A691A63786800F015
:100B400007F897F82B3018463037BD4680BD00BFF8
:100B500080B584B000AF78600023FB730023BB60D6
:100B60007B68DB6800229A617B68DB686FF08042FB
:100B70005A617868FFF770FB7B68DB78002B03D144
:100B80003B7A43F010033B727B7A43F008037B729D
:100B90007B7A43F010037B727B7A43F020037B72F5
:100BA000BB7A43F00403BB72BB7A43F00803BB7209
:100BB0003B7A43F008033B72BB7A43F01003BB72ED
:100BC000BB7A43F02003BB727B68DB687A68D2682B
:100BD0009169BA68D2431140BA680A439A61FB7BB3
:100BE00018461037BD4680BD80B485B000AF786030
:100BF0000023FB737B681B699B68BB603B7AC3F374
:100C00004103DBB2022B09D0032B04D0012B02D00D
:100C10000323FB7305E00223FB7302E00123FB7354
:100C200000BFFB7B18461437BD4680BC704700BF31
:100C300080B487B000AF78600023FB750023BB60F1
:100C40007B681B699B683B617B689B691B68FB60D9
:100C50003B7CC3F34103DBB2022B04D0BB896FF3AF
:100C60000A03BB8105E0BB89032262F30A03BB814F
:100C700000BF7B689B69FA681A607B7A43F00103C6
:100C80007B727B681B697A6812695168BA68D243C3
:100C90001140BA680A435A60FB7D18461C37BD46AE
:100CA00080BC704780B487B000AF786039600023A3
:100CB000FB740023FB600023BB603B685B78012B67
:100CC0000FD13B681B787A6804339B0013449B6800
:100CD0007B613B681B781A46012393409BB23B81A2
:100CE0000EE03B681B787A6814339B0013445B6802
:100CF0007B613B681B781A46012393409BB27B8142
:100D00007B691B68FB607B7B23F07F03DBB2002BDE
:100D100027D13B689B689BB2C3F30A039AB2BB8995
:100D200062F30A03BB813B68DB7803F00303DAB2AA
:100D3000BB7B62F38303BB733B68DB88DBB203F0EE
:100D40000F03DAB2FB8962F38913FB81FB7B43F06B
:100D50001003FB737B7B43F080037B73FA687B6932
:100D60001A607B681B697A681269D169BA680A439C
:100D7000DA61FB7C18461C37BD4680BC704700BF5B
:100D800080B487B000AF786039600023FB74002323
:100D9000FB600023BB603B685B78012B0FD13B6895
:100DA0001B787A6804339B0013449B687B613B6823
:100DB0001B781A46012393409BB23B810EE03B68AF
:100DC0001B787A6814339B0013445B687B613B6833
:100DD0001B781A46012393409BB27B817B7B6FF388
:100DE000C7137B73FA687B691A607B681B697A6832
:100DF0001269D169BA68D2430A40DA61FB7C1846AD
:100E00001C37BD4680BC704780B588B000AF7860A5
:100E100039600023FB770023BB6100237B61002343
:100E20003B613B685B78012B40F0AB803B681B78F3
:100E30007A6804339B0013449B681B687B613B68A2
:100E40001B787A6804339B0013449B681B693B61E1
:100E50003B685B69002B09D13B696FF312033B616F
:100E60007B8A012262F3CC037B8222E03B685B69D0
:100E7000C3F312023B6962F312033B613B685A6998
:100E80003B689B6813445A1E3B689B68B2FBF3F3B4
:100E90009BB2C3F309039AB27B8A62F3CC037B82D1
:100EA0003B68DB78012B04D1FB7C012262F3461303
:100EB000FB743B681B787A6804339B0013449B687F
:100EC0003A691A617B68DB78012B0AD13B681B7891
:100ED0007A6804339B0013449B683A6812695A612C
:100EE00015E03B68DB78012B11D03B685B69002B78
:100EF0000DD03B681B781A4601239340BB617B6889
:100F00001B697A681269516BBA690A435A633B6874
:100F1000DB78012B14D17B681B699B68FB60FB6845
:100F2000C3F30D239BB203F00103002B04D1FB7D1F
:100F300043F02003FB7503E0FB7D43F01003FB75DA
:100F4000FB7D43F00403FB75FB7D43F08003FB75E1
:100F50003B681B787A6804339B0013449B687A696A
:100F60001A603B68DB78012B40F089803B68D968C8
:100F70003B681A783B685B699BB27868FFF7D6F9E3
:100F80007DE03B681B787A6814339B0013445B68F0
:100F90001B687B613B681B787A6814339B001344A1
:100FA0005B681B693B613B685B69002B0DD13B684B
:100FB0009B68C3F312023B6962F312033B617B8AB5
:100FC000012262F3CC037B8220E03B685A693B68D4
:100FD0009B6813445A1E3B689B68B2FBF3F39BB2B9
:100FE000C3F309039AB27B8A62F3CC037B827B8AC8
:100FF000C3F3C9039BB21A463B689B6803FB02F329
:10100000C3F312023B6962F312033B613B681B7836
:101010007A6814339B0013445B683A691A617B68F1
:10102000DB78012B09D13B681B787A6814339B006D
:1010300013445B683A6812695A613B68DB78012B9C
:101040000CD13B685B79002B04D0FB7D43F020037F
:10105000FB7503E0FB7D43F01003FB75FB7D43F064
:101060000403FB75FB7D43F08003FB753B681B7835
:101070007A6814339B0013445B687A691A60FB7FBB
:1010800018462037BD4680BD80B489B000AF786077
:1010900039600023FB770023BB6100233B61002301
:1010A000BB603B685B78012B70D17B689B697B617F
:1010B0007B691B683B617B691B69BB603B685B6943
:1010C000002B09D13B7A6FF306033B72BB7A0122F6
:1010D00062F3C403BB7223E03B685A693B689B68B8
:1010E0009A420ED93B689A683B685A613B689B6894
:1010F000DBB203F07F03DAB23B7A62F306033B72A2
:1011000009E03B685B69DBB203F07F03DAB23B7A4C
:1011100062F306033B72BB7A012262F3C403BB7223
:10112000BA687B691A617B68DB78012B09D13B685F
:101130001B787A6804339B0013449B683A681269F1
:101140005A61FB7C43F00403FB74FB7C43F0800397
:10115000FB743A697B691A607B68DB78002B76D177
:101160003B685B69002B72D03B681B781A460123F1
:1011700093401A46BB691343BB617B681B697A685D
:101180001269516BBA690A435A6360E03B681B7885
:101190007A6814339B0013445B681B683B613B68AF
:1011A0001B787A6814339B0013445B681B69BB602F
:1011B0003B685B69002B0FD13B689B68DBB203F097
:1011C0007F03DAB23B7A62F306033B72BB7A0122F9
:1011D00062F3C403BB7212E03B689A683B685A61D1
:1011E0003B689B68DBB203F07F03DAB23B7A62F3C1
:1011F00006033B72BB7A012262F3C403BB723B68F5
:101200001B787A6814339B0013445B68BA681A61D0
:101210007B68DB78012B09D13B681B787A68143333
:101220009B0013445B683A6812695A61FB7C43F087
:101230000403FB74FB7C43F08003FB743B681B7866
:101240007A6814339B0013445B683A691A60FB7F29
:1012500018462437BD4680BC704700BF80B487B0B5
:1012600000AF786039600023FB750023FB603B68AA
:101270005B78012B1CD13B681B787A6804339B0098
:1012800013449B683B613B691B68FB60FB7B23F05D
:101290007F03DBB2002B03D0FB7B43F04003FB73E7
:1012A000BB7B43F02003BB73FA683B691A6011E013
:1012B0003B681B787A6814339B0013445B683B617E
:1012C0003B691B68FB60BB7B43F02003BB73FA6880
:1012D0003B691A60FB7D18461C37BD4680BC7047D1
:1012E00080B487B000AF786039600023FB740023BE
:1012F000FB603B685B78012B08D13B681B787A6800
:1013000004339B0013449B687B6107E03B681B78B8
:101310007A6814339B0013445B687B617B691B68AC
:10132000FB60BB7B6FF34513BB733B68DB78032B20
:1013300003D03B68DB78022B03D1FB7B43F0100327
:10134000FB73FA687B691A60FB7C18461C37BD4644
:1013500080BC704780B485B000AF78607B681B6943
:101360009B69FB607B681B69DB69FA681340FB6063
:10137000FB681B0C18461437BD4680BC704700BF85
:1013800080B485B000AF78600B46FB70FB787A685C
:1013900014339B0013445B689B68FB607B681B698C
:1013A0005B69FA681340FB60FB6818461437BD465A
:1013B00080BC704780B485B000AF78607B681B69E3
:1013C0009B69FB607B681B69DB69FA681340FB6003
:1013D000FB689BB218461437BD4680BC704700BFFF
:1013E00080B487B000AF786000233B61FB7C43F0A2
:1013F000C003FB74BB7C012262F3C403BB743B7C5F
:10140000182262F306033B747B685B6D3A691A61CC
:101410007B68DB78012B16D10023FB607B685B6D5A
:101420007A6802F2CC525A617B685B6D1B68FB6084
:10143000FB7B43F08003FB734FF08023FB607B68F2
:101440005B6DFA681A6000BF1C37BD4680BC7047F0
:1014500080B582B002AF01230193022300930023E1
:1014600003220121044804F01BF9044800F008F8A5
:1014700000BFBD4680BD00BF000802400020014003
:1014800080B58CB000AF786000237B770023BB620F
:1014900000237B6200233B62012387F82C3000236A
:1014A0003B777B681B4A934208D11B4A1A4B5B6C03
:1014B00043F4807353640023BB610BE07B68174ADD
:1014C000934207D1144A144B5B6C43F4007353648A
:1014D0000023BB6100233B610023BB604FF48033DA
:1014E000FB604FF440737B6107F10803184602F07C
:1014F000F1FC07F118031946786802F097FC7B6845
:101500009B6843F001027B689A6000BF3037BD469C
:1015100080BD00BF00200140003802400021014092
:1015200080B584B000AF78600B46FB7040F6FF7367
:10153000FB60F97801230122786802F0F3FC7B68F4
:101540009B6843F080427B689A6006E0FB685A1E05
:10155000FA60002B01D1002308E07B681B6803F0D0
:101560000203002BF2D07B68DB6C9BB2184610376D
:10157000BD4680BD80B400AF034B05221A7000BF8A
:10158000BD4680BC704700BF0000002080B483B01F
:1015900000AF0346FB71044B05221A7000BF0C37E5
:1015A000BD4680BC704700BF0000002080B400AF83
:1015B000034B06221A7000BFBD4680BC704700BFB7
:1015C0000000002080B400AF034B05221A7000BF5A
:1015D000BD4680BC704700BF0000002080B400AF53
:1015E000034B05221A7000BFBD4680BC704700BF88
:1015F0000000002080B400AF034B05221A7000BF2A
:10160000BD4680BC704700BF0000002080B400AF22
:10161000034B05221A7000BFBD4680BC704700BF57
:101620000000002080B483B000AF03463960FB7136
:1016300097F90730002B0BDA0D49FB7903F00F0304
:10164000043B3A68D2B21201D2B20B441A7609E0D6
:10165000084997F907303A68D2B21201D2B20B4466
:1016600083F8002300BF0C37BD4680BC704700BF25
:1016700000ED00E000E100E080B582B000AF7860EE
:101680007B68B3F1807F01D3012311E00A4A7B68B4
:1016900023F07F43013B53600F214FF0FF30FFF7F2
:1016A000C1FF054B00229A60034B07221A600023FA
:1016B00018460837BD4680BD10E000E080B584B014
:1016C00000AF0C4B00221A600B4B00221A600B4B30
:1016D00000221A603B46184602F0F0F97B68084A7F
:1016E000A2FB03239B0C1846FFF7C6FF00BF103771
:1016F000BD4680BD040B0020080B00200C0B002011
:1017000083DE1B4380B483B000AF78607B68064AF9
:10171000136000BF044B1B68002BFBD100BF0C37CC
:10172000BD4680BC704700BF040B002080B584B06C
:1017300000AF78600023FB6006E04FF47A70FFF79B
:10174000E1FFFB680133FB607B68FA689A42F4D3DF
:1017500000BF1037BD4680BD80B400AF194B1B6879
:10176000002B04D0174B1B68013B164A1360164B25
:101770001B68B3F57A7F0CD3134B00221A60134B0E
:101780001B68002B0AD0114B1B68013B0F4A1360EA
:1017900004E00D4B1B6801330B4A13600C4B1B68B4
:1017A00001330B4A13600B4B1B680133094A13606A
:1017B000094B1B680133084A136000BFBD4680BC5B
:1017C000704700BF040B00200C0B0020080B00200A
:1017D000880C00201C0F0020100F002080B58AB05C
:1017E00000AF7860396000237B6200233B620023F6
:1017F000FB610023BB617B681B8A9BB27B627B6AB7
:1018000023F440537B623B68DB881A467B6A1343B0
:101810007B627B6A9AB27B681A827B689B899BB2E7
:101820007B627B6A23F4B05323F00C037B623B683A
:101830009A883B681B8913439AB23B685B891343C0
:101840009BB21A467B6A13437B627B6A9AB27B68BF
:101850009A817B689B8A9BB27B627B6A23F440738C
:101860007B623B689B891A467B6A13437B627B6A77
:101870009AB27B689A8207F10803184602F01EF9B3
:101880007B68304A934203D07B682F4A934202D14F
:101890007B693B6201E03B693B627B689B899BB251
:1018A0001BB2002B0CDA3A6A13469B0013449A00D1
:1018B0001A443B681B685B00B2FBF3F3FB610BE06F
:1018C0003A6A13469B0013449A001A443B681B680B
:1018D0009B00B2FBF3F3FB61FB691C4AA2FB0323F1
:1018E0005B091B017B627B6A1B09642202FB03F319
:1018F000FA69D31ABB617B689B899BB21BB2002B30
:101900000CDABB69DB003233104AA2FB03235B090C
:1019100003F007037A6A13437B620BE0BB691B0188
:1019200032330A4AA2FB03235B0903F00F037A6AEE
:1019300013437B627B6A9AB27B681A8100BF2837A7
:10194000BD4680BD00100140001401401F85EB51D1
:1019500080B483B000AF78600B46FB70FB78002B3F
:1019600008D07B689B899BB243F400539AB27B6892
:101970009A8107E07B689B899BB223F400539AB25B
:101980007B689A8100BF0C37BD4680BC704700BFA2
:1019900080B483B000AF78600B46FB70FB78002BFF
:1019A0000AD07B689B899BB26FEA43436FEA53433B
:1019B0009AB27B689A8107E07B689B899BB2C3F3EC
:1019C0000E039AB27B689A8100BF0C37BD4680BC7B
:1019D000704700BF80B483B000AF78600B467B8057
:1019E0007B88C3F308039AB27B689A8000BF0C37E8
:1019F000BD4680BC704700BF80B483B000AF786044
:101A00007B689B889BB2C3F308039BB218460C37D4
:101A1000BD4680BC704700BF80B487B000AF78601F
:101A20000B467B8013467B7000233B610023FB60E9
:101A30000023BB6000237B617B687B617B88DBB21A
:101A40005B09DBB23B617B8803F01F03FB60012273
:101A5000FB6802FA03F3BB603B69012B03D17B698E
:101A60000C337B6109E03B69022B03D17B691033A6
:101A70007B6102E07B6914337B617B78002B06D0AD
:101A80007B697A691168BA680A431A6006E07B6963
:101A90007A691168BA68D2430A401A6000BF1C37DD
:101AA000BD4680BC704700BF80B485B000AF786091
:101AB0000B467B800023FB737B681B889AB27B8874
:101AC00013409BB2002B02D00123FB7301E00023E3
:101AD000FB73FB7B18461437BD4680BC704700BFC4
:101AE00080B487B000AF78600B467B800023FB603A
:101AF00000237B610023BB600023FB747B88DBB287
:101B00005B09DBB2BB607B8803F01F037B610122B2
:101B10007B6902FA03F37B61BB68012B07D17B6809
:101B20009B899BB21A467B6913407B6111E0BB68BD
:101B3000022B07D17B681B8A9BB21A467B69134034
:101B40007B6106E07B689B8A9BB21A467B691340E7
:101B50007B617B881B0A9BB2FB600122FB6802FA57
:101B600003F3FB607B681B889BB21A46FB6813403B
:101B7000FB607B69002B05D0FB68002B02D00123A2
:101B8000FB7401E00023FB74FB7C18461C37BD4648
:101B900080BC704780B483B000AF0346FB71044A39
:101BA000FB79136000BF0C37BD4680BC704700BF97
:101BB00020000E4280B582B002AF0C4B00930C4B5C
:101BC0000C4A01210C4801F097F90C4B00221A60D5
:101BD0000B4B00221A600B4B00221A600A4B0122A9
:101BE0001A7000231846BD4680BD00BF04000020C7
:101BF0005C02002050010020101200200C12002076
:101C00000812002084180020100B002080B400AFC0
:101C1000054B1B68002B0CBF01230023DBB21846C9
:101C2000BD4680BC704700BF8418002080B400AF60
:101C3000054B1B68802B0CBF01230023DBB2184629
:101C4000BD4680BC704700BF8418002080B485B0BA
:101C500000AF0346FB71124B1B68FB81114B1B68E5
:101C6000BB8113E0BB89802B01D10023BB81BB89E1
:101C70000D4AD25CFB79DBB29A4201D1012309E023
:101C8000BB890133BB81FB89013BFB81FB89002BB5
:101C9000E8D1002318461437BD4680BC704700BF0A
:101CA00084180020081200200418002080B483B09B
:101CB00000AF7860154B1B68002B1DD0144B1B68C0
:101CC0007F2B02D9124B00221A60114B1B68114A5C
:101CD000D25C7B681A700E4B1B680E4A0021D154EF
:101CE0000B4B1B6801330A4A1360084B1B68013B0E
:101CF000064A1360032303E07B6800221A70042362
:101D000018460C37BD4680BC704700BF84180020C1
:101D1000081200200418002080B584B000AF0346EC
:101D2000FB71FB79DBB2FB7307F10F03012118464E
:101D300004F084FE002318461037BD4680BD00BF66
:101D400080B582B000AF786006E07B685A1C7A608C
:101D50001B781846FFF7E0FF7B681B78002BF4D157
:101D6000002318460837BD4680BD00BF80B584B04B
:101D700000AF78600B467B800023FB81FFF746FFB6
:101D80000346002B0AD10A20FFF760FF0346002B11
:101D900021D1FFF74BFF0346002B1CD1002325E088
:101DA00000BF07F10D031846FFF780FF0346032B22
:101DB000F7D1FB897A6813447A7B1A70FB897A68B9
:101DC00013441B780A2B03D1FB890133FB8107E005
:101DD000FB890133FB81FA897B88013B9A42DFDB77
:101DE000FB897A68134400221A70FB891846103761
:101DF000BD4680BD80B483B000AF0346FB71114B7C
:101E00001B687F2B17D8104B1B687F2B02D90E4BFA
:101E100000221A600C4B1B680C49FA79CA540A4B11
:101E20001B680133084A1360064B1B680133054ADF
:101E30001360002300E0022318460C37BD4680BC27
:101E4000704700BF841800200C12002004180020E6
:101E500080B582B000AF78607B680E4A93420AD1A9
:101E600001214FF0007001F089FF00214FF0007058
:101E700001F084FF09E001214FF0806001F07EFF56
:101E800000214FF0806001F079FF00BF0837BD46A8
:101E900080BD00BF0064004080B485B000AF7860B2
:101EA00039600023FB730023BB607B681B6823F051
:101EB00002027B681A607B681B6843F001027B6842
:101EC0001A6002E0BB680133BB607B685B6803F0AB
:101ED0000103002B04D1BB684FF6FF729342F1D18E
:101EE0007B685B6803F00103002B02D10023FB73C6
:101EF0009CE03B689B79012B06D17B681B6843F013
:101F000080027B681A6005E07B681B6823F0800212
:101F10007B681A603B68DB79012B06D17B681B6804
:101F200043F040027B681A6005E07B681B6823F081
:101F300040027B681A603B681B7A012B06D17B68E4
:101F40001B6843F020027B681A6005E07B681B6811
:101F500023F020027B681A603B685B7A012B06D174
:101F60007B681B6843F010027B681A6005E07B68A1
:101F70001B6823F010027B681A603B689B7A012B78
:101F800006D17B681B6843F008027B681A6005E095
:101F90007B681B6823F008027B681A603B68DB7A69
:101FA000012B06D17B681B6843F004027B681A6032
:101FB00005E07B681B6823F004027B681A603B68BD
:101FC0009B789A073B68DB781B061A433B681B79B2
:101FD0001B041A433B685B791B051A433B681B884B
:101FE000013B1A437B68DA617B681B6823F00102BE
:101FF0007B681A600023BB6002E0BB680133BB60F2
:102000007B685B6803F00103002B04D0BB684FF6CC
:10201000FF729342F1D17B685B6803F00103002BF0
:1020200002D00023FB7301E00123FB73FB7B184606
:102030001437BD4680BC704780B485B000AF78606F
:102040000023FB607B689B7A1A4601239340FB6068
:10205000554A554BD3F8003243F00103C2F8003221
:102060005149514BD3F81C22FB68DB431340C1F8A4
:102070001C327B681B7B002B25D14B494A4BD3F884
:102080000C22FB68DB431340C1F80C3246497B68E5
:102090009B7A18467B68DB881B047A6852881A434F
:1020A00000F1480341F833203F497B689B7A18468A
:1020B0007B689B881B047A6812881A4300F14803E6
:1020C000DB000B445A607B681B7B012B24D1364913
:1020D000354BD3F80C22FB681343C1F80C3232495C
:1020E0007B689B7A18467B681B881B047A68528839
:1020F0001A4300F1480341F833202B497B689B7A4F
:1021000018467B689B881B047A68D2881A4300F1C2
:102110004803DB000B445A607B68DB7A002B09D153
:102120002149214BD3F80422FB68DB431340C1F85B
:10213000043207E01C491C4BD3F80422FB6813430C
:10214000C1F804327B681B89002B08D11649164B55
:10215000D3F81422FB68DB431340C1F814327B68C8
:102160001B89012B07D110490F4BD3F81422FB68B0
:102170001343C1F814327B685B7B012B07D10A49FA
:10218000094BD3F81C22FB681343C1F81C32064AE2
:10219000054BD3F8003223F00103C2F8003200BF30
:1021A0001437BD4680BC70470064004080B485B0E1
:1021B00000AF786039600023FB737B689B6803F095
:1021C0008063002B02D00023FB7313E07B689B68C5
:1021D00003F00063002B02D00123FB730AE07B684D
:1021E0009B6803F08053002B02D00223FB7301E0B5
:1021F0000423FB73FB7B042B00F09C80FB7BFA7BAE
:102200007968183212010A44126802F001027968F2
:1022100018331B010B441A603B681B7A002B13D147
:10222000FB7BFA7B7968183212010A4411683A681C
:10223000126852053868407A02430A4379681833B5
:102240001B010B441A6015E0FB7BFA7B796818329E
:1022500012010A4411683A685268D2003868007A5C
:1022600002433868407A02430A43796818331B01F5
:102270000B441A603B689B7A03F00F03DAB23B68A9
:102280009A72FB7BFA7B7968183212010A44043295
:10229000126822F00F02796818331B010B440433D3
:1022A0001A60FB7BFA7B7968183212010A44043207
:1022B00012683968897A0A43796818331B010B441C
:1022C00004331A60FB7B3A68927B11063A68527BB2
:1022D000120411433A68127B12020A433968C97A20
:1022E0000A4379681B010B4403F5C4731A60FB7B36
:1022F0003A68927C11063A68527C120411433A689B
:10230000127C12020A433968C97B0A4379681B01AF
:102310000B4403F5C6731A60FB7BFA7B79681832AD
:1023200012010A44126842F00102796818331B0155
:102330000B441A60FB7B18461437BD4680BC7047BF
:1023400080B485B000AFF8600B467A60FB72FB7A10
:10235000FA681B331B0113441B68DBB203F0040350
:10236000DAB27B681A727B681B7A002B09D1FB7A80
:10237000FA681B331B0113441B685A0D7B681A60F3
:1023800008E0FB7AFA681B331B0113441B68DA0868
:102390007B685A60FB7AFA681B331B0113441B6885
:1023A000DBB203F00203DAB27B685A72FB7AFA6896
:1023B0001B331B01134404331B68DBB203F00F0310
:1023C000DAB27B689A72FB7AFA681B331B011344FA
:1023D00004331B681B0ADAB27B68DA74FB7AFA688A
:1023E0001B01134403F5DC731B68DAB27B68DA72F5
:1023F000FB7AFA681B01134403F5DC731B681B0AA4
:10240000DAB27B681A73FB7AFA681B01134403F58E
:10241000DC731B681B0CDAB27B685A73FB7AFA68B0
:102420001B01134403F5DC731B681B0EDAB27B68D7
:102430009A73FB7AFA681B01134403F5DE731B6879
:10244000DAB27B68DA73FB7AFA681B01134403F58E
:10245000DE731B681B0ADAB27B681A74FB7AFA68AF
:102460001B01134403F5DE731B681B0CDAB27B6897
:102470005A74FB7AFA681B01134403F5DE731B6878
:102480001B0EDAB27B689A74FB7A002B06D1FB68CC
:10249000DB6843F02002FB68DA6005E0FB681B693B
:1024A00043F02002FB681A6100BF1437BD4680BCB0
:1024B000704700BF80B485B000AFF860B9601346C4
:1024C000FB71FB79002B06D0FB685A69BB681A4385
:1024D000FB685A6106E0FB685A69BB68DB431A4037
:1024E000FB685A6100BF1437BD4680BC704700BF0F
:1024F00080B582B000AF0346FB71FA790C491346F0
:102500009B0013449B000B441B68002B0AD0FA79F4
:10251000074913469B0013449B000B441B689847D4
:10252000034600E0042318460837BD4680BD00BFBF
:102530002000002080B582B000AF0346FB71FA791D
:102540000D4913469B0013449B000B4404331B6846
:10255000002B0BD0FA79084913469B0013449B00CB
:102560000B4404331B689847034600E004231846D5
:102570000837BD4680BD00BF2000002080B584B074
:1025800000AFB9607A603B600346FB733B68002B89
:1025900001D104231AE0FA7B0E4913469B00134431
:1025A0009B000B4410331B68002B0ED0FA7B0949AB
:1025B00013469B0013449B000B4410331B683A687E
:1025C0007968B8689847034600E004231846103736
:1025D000BD4680BD2000002080B584B000AFB9604A
:1025E0007A603B600346FB733B68002B01D10423F8
:1025F0001AE0FA7B0E4913469B0013449B000B44E0
:102600000C331B68002B0ED0FA7B094913469B0044
:1026100013449B000B440C331B683A687968B86814
:102620009847034600E0042318461037BD4680BD96
:102630002000002080B582B000AF03463A60FB71F5
:102640000B46BB71FA790F4913469B0013449B005C
:102650000B4408331B68002B0ED0FA790949134646
:102660009B0013449B000B4408331B68BA793968FC
:1026700010469847034600E0042318460837BD4635
:1026800080BD00BF2000002080B400AF024B184680
:10269000BD4680BC704700BF0000FC4280B400AF64
:1026A00001231846BD4680BC704700BF80B400AF10
:1026B00001231846BD4680BC704700BF80B400AF00
:1026C00001231846BD4680BC704700BF80B400AFF0
:1026D00001231846BD4680BC704700BF80B400AFE0
:1026E00001231846BD4680BC704700BF80B400AFD0
:1026F00001231846BD4680BC704700BF80B483B03C
:1027000000AF03463960FB71012318460C37BD4604
:1027100080BC704780B483B000AF03463960FB7162
:10272000012318460C37BD4680BC704780B483B087
:1027300000AF03463960FB71012318460C37BD46D4
:1027400080BC704780B485B000AFF860B9607A6033
:10275000012318461437BD4680BC704780B485B04D
:1027600000AFF860B9607A60012318461437BD469F
:1027700080BC704780B485B000AFF860B9607A6003
:10278000012318461437BD4680BC704780B485B01D
:1027900000AFF860B9607A60012318461437BD466F
:1027A00080BC704780B485B000AFF860B9607A60D3
:1027B000012318461437BD4680BC704780B485B0ED
:1027C00000AFF860B9607A60012318461437BD463F
:1027D00080BC704790B58BB000AF78607B68012BF0
:1027E00004D1C44B4FF461321A6103E0C14B4FF482
:1027F00016521A61002387F8273071E197F82720D5
:10280000BC491346DB009B1ADB000B4420331B68DA
:102810000121184601F03AFA97F82720B5491346E6
:10282000DB009B1ADB000B4430331B680121184688
:1028300001F02CFA97F82720AE491346DB009B1ACB
:10284000DB000B440C331B68AB4A93420CD097F867
:102850002720A8491346DB009B1ADB000B440C33EE
:102860001B68A64A93420ED197F82720A149134628
:10287000DB009B1ADB000B4404331B680121184664
:1028800001F05EFA0DE097F827209A491346DB0025
:102890009B1ADB000B4404331B680121184601F02E
:1028A00031FA97F8272093491346DB009B1ADB0087
:1028B0000B441833186897F827208E491346DB001D
:1028C0009B1ADB000B4424331B789CB297F827201B
:1028D00088491346DB009B1ADB000B4408331B7846
:1028E0001A46214603F0A4FF97F827208149134692
:1028F000DB009B1ADB000B442833186897F827206D
:102900007C491346DB009B1ADB000B4434331B78F5
:102910009CB297F8272077491346DB009B1ADB000F
:102920000B4408331B781A46214603F081FF02232B
:1029300087F82030032387F82130002387F82230DE
:10294000012387F8233097F827206A491346DB00D4
:102950009B1ADB000B441C331B88FB6197F8272074
:1029600064491346DB009B1ADB000B4418331B68D9
:1029700007F11C021146184603F0CCFE97F82720F9
:102980005C491346DB009B1ADB000B442C331B888D
:10299000FB6197F8272057491346DB009B1ADB00A1
:1029A0000B4428331B6807F11C021146184603F03C
:1029B000B1FE97F827204F491346DB009B1ADB0036
:1029C0000B440C331B6801211846FEF7E1FF97F812
:1029D000272048491346DB009B1ADB000B441033C9
:1029E0001B68FB6000233B8200237B820023BB82A9
:1029F00000233B830C23FB8297F827203D49134695
:102A0000DB009B1ADB000B440C331B6807F10C0244
:102A100011461846FEF7E2FE97F82720354913467F
:102A2000DB009B1ADB000B440C331B6801211846AA
:102A3000FEF78EFF97F827202E491346DB009B1ADE
:102A4000DB000B440C331B68012240F22551184671
:102A5000FEF7E2FF97F8272026491346DB009B1A72
:102A6000DB000B4414331B783B7200237B72002382
:102A7000BB720123FB7207F10803184609F02CF919
:102A800097F827201E491346DB009B1ADB000B44F6
:102A90000A221A7097F8272019491346DB009B1A5F
:102AA000DB000B44323300221A8097F827201449A8
:102AB0001346DB009B1ADB000B44343300221A80E0
:102AC00097F827200E491346DB009B1ADB000B44C6
:102AD000363300221A7097F82730013387F82730F1
:102AE00097F82730002B3FF489AE00BF2C37BD4646
:102AF00090BD00BFD4000020001001400014014030
:102B0000680F002080B582B000AF03460A46FB7113
:102B10001346BB8000BFFA7910491346DB009B1AAD
:102B2000DB000B440C331B6880211846FEF7BCFF0A
:102B30000346002BEFD0FA7908491346DB009B1AB5
:102B4000DB000B440C331B68BA8811461846FEF7AD
:102B500041FF00BF0837BD4680BD00BFD400002044
:102B600080B582B000AF03463960FB711346BB717C
:102B70000AE03B681B789AB2FB7911461846FFF7CA
:102B8000C1FF3B6801333B603B681B78002BF0D1F1
:102B9000BB79012B0AD1FB790A211846FFF7B2FF56
:102BA000FB790D211846FFF7ADFF1EE0BB79022B24
:102BB0000AD1FB790D211846FFF7A4FFFB790A2102
:102BC0001846FFF79FFF10E0BB79032B05D1FB7977
:102BD0000A211846FFF796FF07E0BB79042B04D1C2
:102BE000FB790D211846FFF78DFF00BF0837BD4662
:102BF00080BD00BF80B487B000AF03463960FB7171
:102C00000023FB75FA7952491346DB009B1ADB005F
:102C10000B4434331B88BB82FA794D491346DB00E1
:102C20009B1ADB000B4432331B88FB8100237B742F
:102C3000BA8AFB899A426DD018E0FA79B98A444879
:102C40001346DB009B1ADB0003440B441B787B73A9
:102C50007B7B0A2B02D101237B740BE0BB8A0133FF
:102C6000BB82BB8A312B01D90023BB82BA8AFB8984
:102C70009A42E2D17B7C012B49D10123FB75FA7981
:102C800033491346DB009B1ADB000B4434331B88AB
:102C9000BB8200237B8224E0FA79B98A2C48134650
:102CA000DB009B1ADB0003440B441B787B73BB8A5D
:102CB0000133BB82BB8A312B01D90023BB827B7BD2
:102CC0001F2B0BD97B7B7E2B08D87B8A3A68134459
:102CD0007A7B1A707B8A01337B8202E07B7B0A2B32
:102CE00004D0BA8AFB899A42D6D100E000BF7B8A21
:102CF0003A68134400221A70FA7915491346DB002A
:102D00009B1ADB000B443433BA8A1A8019E0002383
:102D1000FB7516E0FA790E491346DB009B1ADB00BF
:102D20000B4436331B78022B0BD10223FB75FA7947
:102D300007491346DB009B1ADB000B4436330022A5
:102D40001A70FB7D18461C37BD4680BC704700BF1B
:102D5000680F002090B484B000AF03460A46FB71B0
:102D60001346BB80FA7925491346DB009B1ADB002A
:102D70000B4432331B88FB81FA79F989BB88DCB2BA
:102D80001E481346DB009B1ADB0003440B4422461B
:102D90001A70FB890133FB81FB89312B01D9002398
:102DA000FB81FA7915491346DB009B1ADB000B44C3
:102DB0003233FA891A80FA7910491346DB009B1ADC
:102DC000DB000B4432331988FA790C481346DB00D8
:102DD0009B1ADB00034434331B88994209D1FA79EA
:102DE00006491346DB009B1ADB000B4436330222F4
:102DF0001A7000BF1037BD4690BC7047680F0020A6
:102E000080B584B000AF03460A46FB711346BB8011
:102E10000023FB7315E0FA7B0D491346DB009B1A78
:102E2000DB000B4414331B78FA799A4206D1BA8836
:102E3000FB7B11461846FFF78DFF05E0FB7B013356
:102E4000FB73FB7B002BE6D000BF1037BD4680BD77
:102E5000D400002080B582B000AF40F225510B486D
:102E6000FEF73EFE0346012B09D10848FEF7C4FDDC
:102E70000346FB80FB8819462720FFF7C1FF044B60
:102E800001221A7000BF0837BD4680BD00480040CF
:102E9000080F002080B582B000AF104B7B60104B54
:102EA0003B6007E03B681A1D3A607A68111D796043
:102EB00012681A603B680B4A9342F3D30A480B49E5
:102EC0004FF000028842B8BF40F8042BFADB00F054
:102ED00039FA00BF0837BD4680BD00BF6C2E01081F
:102EE00000000020040B0020040B0020E024002040
:102EF00080B400AFFEE700BF80B584B000AFF860DB
:102F00007A603B600B46FB72F86803F0A7FEF86836
:102F100000F01EF8FB683A68C3F8E425FB68BA695C
:102F2000C3F8E825FB687A68C3F8EC25FB7A1946F4
:102F3000F86808F031FFFB68D3F8E8351B6898475C
:102F4000F86803F0E3FE00BF1037BD4680BD00BF48
:102F500080B483B000AF7860002318460C37BD46BC
:102F600080BC704780B584B000AF786007F108037B
:102F70001946786804F000FB3B7A03F01F03012B2D
:102F80000AD0022B0FD0002B14D107F108031946E9
:102F9000786803F01BFF16E007F10803194678680C
:102FA00003F064FF0FE007F108031946786803F0A7
:102FB00091FF08E03B7A23F07F03DBB21946786883
:102FC00009F080F800BF002318461037BD4680BDC9
:102FD00080B584B000AF78600B46FB70FB78002BA7
:102FE00044D17B6803F55D73FB607B6893F8113116
:102FF000032B4ED1FB68DA69FB689B689A4220D9A3
:10300000FB68DA69FB689B68D21AFB68DA617B6847
:10301000DB78012B06D1FB68DA68FB689B681A44F1
:10302000FB68DA60FB68D968FB689A68FB68DB6953
:10303000934228BF13469BB21A46786809F052FFA4
:1030400027E07B68D3F8E4351B69002B0AD07B6846
:1030500093F81231032B05D17B68D3F8E4351B6953
:1030600078689847786809F051FF12E07B68D3F8D8
:10307000E4359B69002B0CD07B6893F81231032B4D
:1030800007D17B68D3F8E4359B69FA7811467868F4
:103090009847002318461037BD4680BD80B584B0E0
:1030A00000AF78600B46FB70FB78002B6BD17B6820
:1030B00003F58E73FB607B6893F81131022B55D1B9
:1030C000FB68DA69FB689B689A421BD9FB68DA697E
:1030D000FB689B68D21AFB68DA617B68DB78012B9E
:1030E00006D1FB68DA68FB689B681A44FB68DA6003
:1030F000FB68D968FB68DB699BB21A46786809F0FF
:10310000BDFE33E0FB681B6AFA689268B3FBF2F11C
:1031100002FB01F29B1A002B14D1FB681A6AFB68B0
:103120009B689A420ED3FB681A6AFB685B6A9A42F4
:1031300008D200220021786809F0A0FEFB68002276
:103140005A6213E07B68D3F8E435DB68002B0AD0C1
:103150007B6893F81231032B05D17B68D3F8E435F3
:10316000DB6878689847786809F0E8FE7B6893F830
:103170001631012B1AD1786800F01EF87B68002206
:1031800083F8162112E07B68D3F8E4355B69002BE5
:103190000CD07B6893F81231032B07D17B68D3F8EE
:1031A000E4355B69FA781146786898470023184639
:1031B0001037BD4680BD00BF80B483B000AF7860DB
:1031C0007B681B69044A12685A60002318460C3752
:1031D000BD4680BC704700BF8818002080B582B013
:1031E00000AF7860002340220021786808F058FE84
:1031F000002340228021786808F052FE7B6801227B
:1032000083F812217B68D3F8E8355B687A68927896
:1032100010469847002318460837BD4680BD00BFBA
:1032200080B582B000AF78607B68D3F8E8351B6961
:1032300098477B6893F813217B6883F812217B6899
:10324000032283F81221002318460837BD4680BDAB
:1032500080B582B000AF78607B6893F812217B68FC
:1032600083F813217B68042283F812217B68D3F84A
:10327000E835DB689847002318460837BD4680BD0F
:1032800080B582B000AF78607B68D3F8E435DB6945
:10329000002B05D07B68D3F8E435DB697868984764
:1032A000002318460837BD4680BD00BF80B582B0F8
:1032B00000AF78600B46FB707B68D3F8E4351B6881
:1032C000FA781146786898477B68D3F8E8359B68A8
:1032D0009847002318460837BD4680BD80B582B0A8
:1032E00000AF78600B46FB707B68D3F8E4355B6811
:1032F000FA78114678689847002318460837BD4683
:1033000080BD00BF80B582B000AF78607B68D3F825
:10331000E4351B6A78689847002318460837BD468D
:1033200080BD00BF80B582B000AF78607B68D3F805
:10333000E4355B6A78689847002318460837BD462D
:1033400080BD00BF2DE9B0439AB004AF01F028FE64
:10335000B54B07221A70B54B02221A700023FB638B
:103360000523BB6300237B63012387F857300023C9
:10337000FB64AF4B07F12004186859689A68DB6852
:103380000FC4AC4B07F11004186859689A68DB68E1
:103390000FC4A54B1B780B2B00F2548301A252F8EB
:1033A00023F000BFD5330008ED330008453A00088C
:1033B0007B350008F9370008453A0008173800083F
:1033C0002F3900089F3800087B340008B139000805
:1033D000113A0008012003F033F9002003F050F9FE
:1033E00001F08AFF904B01221A7032E3924B1B6866
:1033F0004CF25032934209D9904B01221A700020AE
:1034000003F01EF9012003F03BF905E08B4B00228D
:103410001A70012003F014F9894B1B68894A934202
:1034200005D9874B00221A60002003F049F901F00A
:1034300025FD0346012B0AD1834807F0BBFF01227B
:103440008249002007F0DCFA002003F0F9F8804BF5
:103450001B6840F6B732934200F3F6827A4807F0D1
:10346000A9FF01227949002007F0CAFA002003F0E1
:10347000E7F86D4B07221A70E6E2012003F000F92D
:10348000744B1B7887F83330724B00221A7001227C
:103490006E49714807F0B4FA01F050FD78630122DB
:1034A0006E49694807F0F0FA0021674807F09EFF6F
:1034B0000123BB6447E0644A4021694808F0B2FA3E
:1034C000614B9B68FB63604807F074FF64480AF037
:1034D00017FF0346BB63BB6B013BBB63604ABB6B1F
:1034E000134400221A705E4801F088FC5D4801F028
:1034F00085FCBA6C5C495A480AF0EAFC012258493A
:10350000514807F0C1FA504BDB68584AA2FB03232D
:103510009B090A22524918460AF05EF9504801F008
:103520006DFC534801F06AFC474807F043FF012255
:103530004A49454807F0A8FAF96B434807F056FF97
:10354000BB6C0133BB64BA6C7B6B9A42B3DD4948F8
:1035500001F054FC3C4807F02DFF01223B490020BC
:1035600007F04EFA012003F06BF82F4B07221A7078
:10357000384A97F8333013706BE2364B1B7887F874
:103580003330344B00221A7001223049324807F0A0
:1035900037FA012003F074F801F048FCB863BB6B04
:1035A000B3F1FF3FF8D0BA6B2F492D480AF090FCD9
:1035B00001222B49244807F067FA234BDB680A22D3
:1035C000274918460AF008F9254801F017FC284851
:1035D00001F014FC00BF01F029FC0346032BFAD1D3
:1035E0000021194807F002FFA7E0174A40211C48B4
:1035F00008F018FA1A4801F001FCFB6C0133FB6477
:1036000097F85730002B37D015480AF079FE03465B
:10361000013B01221946124809F0B6FC3865002327
:1036200087F8573089E000BF140F0020150F0020E5
:103630007C2601088C260108100F0020640F002052
:103640001C0F00203F420F00A00F00208C25010816
:10365000180F0020C4110020D40C00209025010870
:10366000200F0020A0250108B0250108D34D6210CD
:10367000B8250108BC250108FB6CC72B52DDB648F4
:103680000AF03EFE0346013B00221946B24809F00B
:103690007BFC38653B6D1B0EDBB23B703B783B73AC
:1036A0003B7B3B723B7A3B713B6D1B0CDBB27B700F
:1036B0007B787B737B7B7B727B7A7B713B6D1B0A98
:1036C000DBB2BB70BB78BB73BB7BBB72BB7ABB711D
:1036D0003B6DDBB2FB70FB78FB73FB7BFB72FB7A11
:1036E000FB7100237B6407E09C4A7B6C134400223F
:1036F0001A707B6C01337B647B6C0F2BF4DD07F15C
:103700002002394607F11003009313461022934814
:1037100009F068F801F0AEFE0023FB64012387F88E
:1037200057300AE08C480AF0EBFD0346013B0022CB
:103730001946894809F028FC3865894B9A68884BF6
:10374000DB689A427FF451AF3B6D1B0EDBB23B70DE
:103750003B783B733B7B3B723B7A3B713B6D1B0C75
:10376000DBB27B707B787B737B7B7B727B7A7B713C
:103770003B6D1B0ADBB2BB70BB78BB73BB7BBB7200
:10378000BB7ABB713B6DDBB2FB70FB78FB73FB7BE1
:10379000FB72FB7AFB7100233B6407E06F4A3B6CD2
:1037A000134400221A703B6C01333B643B6C0F2BBB
:1037B000F4DD07F12002394607F1100300931346A8
:1037C0001022664809F00EF801F054FE654801F039
:1037D00015FB634807F0EEFD01226349002007F066
:1037E0000FF9624B07221A70012002F029FF604A8C
:1037F00097F8333013702CE1012002F041FF01F003
:10380000ABFA5C4801F0FAFA584B07221A70012013
:1038100002F016FF1DE1012002F032FF564B1B683B
:10382000184609F025FD4FF00002544B09F0B0FE98
:1038300003460C469846A146514B1B68184609F0B2
:1038400017FD4FF000024D4B09F0A2FE03460C4657
:1038500025461C464B4B1B68184609F009FD4FF0E6
:103860000002464B09F094FE02460B46CDE90223C6
:10387000CDE9004542464B46434937480AF028FB0C
:10388000002235490020FFF76BF901F0F7FA0346F3
:10389000002B00F0DB80012002F0D2FED6E00120F8
:1038A00002F0EEFE01223049384807F0A9F8384B03
:1038B0002D4A3849384807F0C9FF1BE037493848D6
:1038C0000AF052FB0346002B10D0364934480AF068
:1038D0004BFB0346002B09D0334931480AF044FB27
:1038E0000346002B02D02E4807F0CEFF29492A4874
:1038F00007F072FF274B5B7A002BDFD101221A49B8
:10390000002007F07DF801F0F7FC154807F052FDA4
:1039100001221549002007F073F8244801F06EFADF
:10392000124B07221A70012002F08AFE91E000205B
:1039300002F0A6FE01F0A2FA0346002B02D00020FE
:1039400002F07EFE0E4B1B6841F2883293427FDD0F
:10395000064B00221A707BE0200F0020C8110020C7
:10396000A00F0020BC2501088C250108140F0020A1
:10397000C4110020C4250108600F002000408F40C2
:10398000180F00200C0F0020D4250108D40C0020B3
:10399000EC2501088C0C0020AC0C0020F42501085B
:1039A000950C00200426010814260108242601088D
:1039B000012002F065FE01222649274807F020F881
:1039C000264B1B78012B09D1254807F05DFF2548C0
:1039D00001F014FA214B00221A700DE00A2220494E
:1039E000214807F051F8204807F0E4FC1F4801F097
:1039F00005FA1A4B01221A701D4B07221A70012278
:103A00001449002006F0FCFF012002F019FE20E01E
:103A1000012002F035FE01220E490F4806F0F0FFAA
:103A2000144807F031FF01220A49002006F0E8FFA0
:103A3000012002F005FE104801F0E0F90C4B0722CE
:103A40001A7006E000BFA4E400BFA2E400BFA0E437
:103A500000BF9EE48C250108D40C0020C411002076
:103A6000F42501083C260108901800205026010882
:103A7000140F0020042601086426010880B483B0D6
:103A800000AF0346FB710C4B00221A700A4B002258
:103A90001A70FB79012B02D0042B04D007E0064BEF
:103AA00001221A7003E0044B05221A7000BF00BF08
:103AB0000C37BD4680BC70477038024080B489B076
:103AC00000AF78600023BB6100237B610023FB61B2
:103AD00002233B610023FB600223BB60484B9B68D1
:103AE00003F00C03BB61BB69042B07D0082B09D082
:103AF000002B3FD17B68434A1A603FE07B68424A13
:103B00001A603BE03E4B5B6803F480039B0DFB6057
:103B10003B4B5B6803F03F03BB60FB68002B0DD0A1
:103B2000394ABB68B2FBF3F2354B596847F6C073AC
:103B30000B409B0903FB02F3FB610CE0314ABB68BD
:103B4000B2FBF3F22E4B596847F6C0730B409B094A
:103B500003FB02F3FB612A4B5B6803F440331B0C4D
:103B600001335B003B61FA693B69B2FBF3F27B68AE
:103B70001A6003E07B68234A1A6000BF204B9B68F1
:103B800003F0F003BB61BB691B09BB611F4ABB6942
:103B900013441B78DBB27B617B681A687B69DA406F
:103BA0007B685A60164B9B6803F4E053BB61BB69AA
:103BB0009B0ABB61154ABB6913441B78DBB27B616E
:103BC0007B685A687B69DA407B689A600C4B9B681B
:103BD00003F46043BB61BB695B0BBB610B4ABB6910
:103BE00013441B78DBB27B617B685A687B69DA40DF
:103BF0007B68DA6000BF2437BD4680BC704700BFD9
:103C0000003802400024F40040787D013C0100208F
:103C100080B485B000AF78600023FB607B6803F45C
:103C20004073B3F5407F11D10F4B9B68FB60FB687D
:103C300023F4F813FB607B6823F0704323F4407394
:103C4000FA681343FB60084AFB6893600649064B19
:103C50001A6F7B68C3F30B0313430B6700BF143762
:103C6000BD4680BC704700BF0038024080B483B0BE
:103C700000AF0346FB71044AFB79136000BF0C37A9
:103C8000BD4680BC704700BF3C0E474280B483B045
:103C900000AF78600B46FB70FB78002B06D009491B
:103CA000084B1A6B7B6813430B6306E00549054B11
:103CB0001A6B7B68DB4313400B6300BF0C37BD46B8
:103CC00080BC70470038024080B483B000AF786099
:103CD0000B46FB70FB78002B06D00949084B5A6B4A
:103CE0007B6813434B6306E00549054B5A6B7B68C1
:103CF000DB4313404B6300BF0C37BD4680BC7047AD
:103D00000038024080B483B000AF78600B46FB708F
:103D1000FB78002B06D00949084B1A6C7B681343CB
:103D20000B6406E00549054B1A6C7B68DB431340C6
:103D30000B6400BF0C37BD4680BC704700380240A2
:103D400080B483B000AF78600B46FB70FB78002B2B
:103D500006D00949084B5A6C7B6813434B6406E054
:103D60000549054B5A6C7B68DB4313404B6400BF2D
:103D70000C37BD4680BC70470038024080B483B029
:103D800000AF78600B46FB70FB78002B06D009492A
:103D9000084B1A6A7B6813430B6206E00549054B22
:103DA0001A6A7B68DB4313400B6200BF0C37BD46C9
:103DB00080BC70470038024080B487B000AF034633
:103DC000FB710023FB6000237B610023FB74FB7904
:103DD0005B09DBB2FB60FB68012B03D1124B1B6854
:103DE0007B6109E0FB68022B03D10F4B1B6F7B61EA
:103DF00002E00D4B5B6F7B61FB7903F01F03FB60FF
:103E00007A69FB6822FA03F303F00103002B02D066
:103E10000123FB7401E00023FB74FB7C18461C3774
:103E2000BD4680BC704700BF0038024080B485B0FA
:103E300000AF786039600023FB600023FB727B6871
:103E40005B68FB60FB6823F0407323F48073FB60C6
:103E50003B681B791A023B681B681343FA681343DB
:103E6000FB607B68FA685A607B689B68FB60FA6855
:103E7000174B1340FB603B681A693B68DB681A43C9
:103E80003B689B681A433B685B795B001343FA68A5
:103E90001343FB607B68FA689A607B68DB6AFB60AF
:103EA000FB6823F47003FB603B681B7D013BDAB2C7
:103EB000FB7A1343FB72FB7A1B05FA681343FB6022
:103EC0007B68FA68DA6200BF1437BD4680BC704771
:103ED000FDF7FFC080B485B000AF78600023FB60C1
:103EE0000E4B5B68FB60FA680D4B1340FB607B6810
:103EF0001A687B685B681A437B689B681A437B6817
:103F0000DB681343FA681343FB60044AFB685360A1
:103F100000BF1437BD4680BC704700BF002301407E
:103F2000E030FCFF80B485B000AF786008461146F1
:103F30001A460346FB700B46BB7013467B7000238A
:103F4000FB600023BB60FB78092B23D97B68DB680F
:103F5000FB60FB78A3F10A0213465B0013440722BF
:103F600002FA03F3BB60BB68DB43FA681340FB60F3
:103F70007978FB78A3F10A0213465B00134401FA37
:103F800003F3BB60FA68BB681343FB607B68FA68A5
:103F9000DA601EE07B681B69FB60FA7813465B0001
:103FA0001344072202FA03F3BB60BB68DB43FA68E1
:103FB0001340FB607978FA7813465B00134401FAEA
:103FC00003F3BB60FA68BB681343FB607B68FA6865
:103FD0001A61BB78062B21D87B685B6BFB60BB78D2
:103FE0005A1E13469B0013441F2202FA03F3BB60C0
:103FF000BB68DB43FA681340FB60F978BB785A1E54
:1040000013469B00134401FA03F3BB60FA68BB68D4
:104010001343FB607B68FA685A6347E0BB780C2B5C
:1040200021D87B681B6BFB60BB78DA1F13469B00B3
:1040300013441F2202FA03F3BB60BB68DB43FA6838
:104040001340FB60F978BB78DA1F13469B001344DA
:1040500001FA03F3BB60FA68BB681343FB607B683B
:10406000FA681A6322E07B68DB6AFB60BB78A3F125
:104070000D0213469B0013441F2202FA03F3BB6098
:10408000BB68DB43FA681340FB60F978BB78A3F1A7
:104090000D0213469B00134401FA03F3BB60FA6858
:1040A000BB681343FB607B68FA68DA6200BF1437B1
:1040B000BD4680BC704700BF80B483B000AF78605D
:1040C0000B46FB707B681B889BB203F04003002B00
:1040D00001D1002325E000BF7B681B899BB203F060
:1040E0000303002BF8D07B681B899BB203F080038D
:1040F000002BF1D1FB789AB27B689A8100BF7B6874
:104100001B899BB203F00303002BF8D07B681B894B
:104110009BB203F08003002BF1D17B689B899BB29B
:10412000DBB218460C37BD4680BC704780B500AF87
:104130000021054800F0E2FC044B10221A830A20FB
:10414000FDF7F4FA00BF80BD0030014000000240DE
:1041500080B582B000AF786039603B68FF22796833
:10416000034800F027FD00BF0837BD4680BD00BFF3
:104170000030014080B582B000AF786039603A68A5
:104180007968034800F0D2FC00BF0837BD4680BD07
:104190000030014080B584B000AF78600C4A7B6885
:1041A0001360FF210B48FFF787FF0346FB73FB7B80
:1041B000FF2B03D0064B1B68002BF2D1FB7BFF2BA0
:1041C0000CBF01230023DBB218461037BD4680BD6B
:1041D000080B00200030014080B500AF044B1022D6
:1041E0001A83FF210348FFF767FF00BF80BD00BFB0
:1041F000000002400030014080B500AF0A4B1022A1
:104200005A83FF210948FFF757FF4FF4FA70FFF771
:10421000C1FF0346002B01D0012302E0FFF7DCFFC2
:104220000023184680BD00BF00000240003001405E
:1042300080B584B000AF78603960134BC8221A6033
:10424000FF211248FFF738FF0346FB73FB7BFF2B70
:1042500003D10D4B1B68002BF2D1FB7BFE2B01D051
:1042600000230CE039687868FFF772FFFF210748E8
:10427000FFF722FFFF210548FFF71EFF0123184625
:104280001037BD4680BD00BF080B00200030014044
:1042900080B584B000AF78600B46FB704FF4FA70C5
:1042A000FFF778FF0346002B01D1002322E0FB78C3
:1042B00019461248FFF700FFFB78FD2B19D04FF489
:1042C00000717868FFF756FFFF210C48FFF7F4FEF6
:1042D000FF210A48FFF7F0FEFF210848FFF7ECFE38
:1042E0000346FB73FB7B03F01F03052B01D0002368
:1042F00000E0012318461037BD4680BD0030014064
:1043000080B584B000AF03463960FB7197F9073080
:10431000002B0EDAFB7903F07F03FB7100213720BD
:10432000FFF7EEFF0346BB73BB7B012B01D9BB7BC1
:1043300059E0FB790C2B08D0FFF74EFFFFF75CFF2D
:104340000346002B01D1FF234DE0FB7943F04003EE
:10435000DBB219462648FFF7AFFE3B681B0EDBB207
:1043600019462348FFF7A8FE3B681B0CDBB2194631
:104370001F48FFF7A1FE3B681B0ADBB219461C4829
:10438000FFF79AFE3B68DBB219461948FFF794FE27
:104390000123FB73FB79002B01D19523FB73FB7980
:1043A000082B01D18723FB73FB7B19461048FFF7CD
:1043B00083FEFB790C2B03D1FF210D48FFF77CFE18
:1043C0000A23FB73FF210A48FFF776FE0346BB73FF
:1043D00097F90E30002B05DAFB7B013BFB73FB7B6F
:1043E000002BEFD1BB7B18461037BD4680BD00BF08
:1043F0000030014080B582B002AF00230193012359
:104400000093002301221021024801F049F900BF66
:10441000BD4680BD0000024080B400AF01231846B5
:10442000BD4680BC704700BF80B400AF0123184672
:10443000BD4680BC704700BF90B583B000AFFFF7AA
:10444000D9FFFFF773FEFFF7E7FF0346002B01D10B
:104450000223CCE00A23FB7106E0FF216648FFF748
:104460002BFEFB79013BFB71FB79002BF5D100237F
:104470007B7100210020FFF743FF0346012B40F032
:1044800089805E4B4FF47A721A604FF4D571082020
:10449000FFF736FF0346012B51D10023FB710EE0DD
:1044A000FC79FF215448FFF707FE03461A4607F13F
:1044B0000803234403F8082CFB790133FB71FB79D3
:1044C000032BEDD9BB78012B64D1FB78AA2B61D1EA
:1044D00000BF4A4B1B68002B07D04FF08041A9203A
:1044E000FFF70EFF0346002BF3D1444B1B68002B54
:1044F00050D000213A20FFF703FF0346002B49D19B
:104500000023FB710EE0FC79FF213B48FFF7D4FD4F
:1045100003461A4607F10803234403F8082CFB79E5
:104520000133FB71FB79032BEDD93B7803F040039A
:10453000002B01D00C2300E004237B712AE0002132
:10454000A920FFF7DDFE0346012B04D802237B716F
:10455000A923BB7103E001237B710123BB7100BF61
:10456000264B1B68002B07D0BB7900211846FFF7AC
:10457000C7FE0346002BF3D1204B1B68002B07D14D
:104580004FF400711020FFF7BBFE0346002B01D053
:1045900000237B711A4A7B791370FFF71DFE7B792C
:1045A000002B08D0174B1B78DBB223F00103DAB2E3
:1045B000144B1A7002E0134B01221A70FFF734FFFC
:1045C0000346002B08D10F4B1B78DBB243F00403EA
:1045D000DAB20C4B1A7007E00A4B1B78DBB223F0FF
:1045E0000403DAB2074B1A70064B1B78DBB218468D
:1045F0000C37BD4690BD00BF00300140080B0020C5
:10460000110B00204C01002080B500AFFFF704FF24
:104610000346002B01D1012318E0FFF705FF0346F5
:10462000002B08D10A4B1B78DBB243F00403DAB24B
:10463000074B1A7007E0064B1B78DBB223F004032C
:10464000DAB2034B1A70024B1B78DBB2184680BDFE
:104650004C01002080B584B000AFF860B9607A608A
:10466000FFF7DAFE0346002B06D0294B1B78DBB29E
:1046700003F00103002B01D0032344E0254B1B78FA
:1046800003F00803002B02D1BB685B02BB607B68B0
:10469000012B11D1B9681120FFF732FE0346002B20
:1046A00029D14FF40071F868FFF7C2FD0346002BD3
:1046B00021D000237B601EE0B9681220FFF720FEA6
:1046C0000346002B17D14FF40071F868FFF7B0FDD7
:1046D0000346002B0AD0FB6803F50073FB607B6880
:1046E000013B7B607B68002BEDD100E000BF002127
:1046F0000C20FFF705FEFFF76FFD7B68002B14BF52
:1047000001230023DBB218461037BD4680BD00BF31
:104710004C010020110B002080B584B000AFF86080
:10472000B9607A60FFF778FE0346002B01D10123C0
:104730006AE0FFF779FE0346002B01D1022363E014
:10474000334B1B78DBB203F00103002B01D00323B2
:104750005AE02F4B1B78DBB203F00403002B01D08F
:10476000022351E02B4B1B7803F00803002B02D1EE
:10477000BB685B02BB607B68012B10D1B968182055
:10478000FFF7BEFD0346002B36D1FE21F868FFF788
:104790007FFD0346002B2FD000237B602CE01D4BB8
:1047A0001B7803F00603002B03D079689720FFF7EE
:1047B000A7FDB9681920FFF7A3FD0346002B1BD105
:1047C000FC21F868FFF764FD0346002B0AD0FB6864
:1047D00003F50073FB607B68013B7B607B68002B0B
:1047E000EED100E000BFFD210020FFF751FD0346A0
:1047F000002B01D101237B60FFF7EEFC7B68002BCF
:1048000014BF01230023DBB218461037BD4680BD1C
:104810004C010020110B002080B58CB000AF034686
:104820003960FB71B24B1B78DBB203F00103002B44
:1048300001D0032358E1FFF7EFFD0346002B01D120
:10484000032351E1012387F82F30FB79042B00F279
:10485000368101A252F823F06D4800088148000813
:10486000BF4A00082D490008254A0008FFF7C4FC8C
:104870000346002B00F02781002387F82F3022E128
:1048800000210920FFF73CFD0346002B40F01D816D
:1048900007F10C0310211846FFF7CAFC0346002B52
:1048A00000F013813B7B9B09DBB2012B11D17B7D97
:1048B0001A463B7D1B0213441A46FB7C1B0403F47F
:1048C0007C13134401333B623B6A9A023B681A60D3
:1048D00028E07B7C03F00F03DAB2BB7DDB09DBB29F
:1048E0001344DAB27B7D5B00DBB203F00603DBB27C
:1048F0001344DBB2023387F82E303B7D9B09DBB2D9
:104900001A46FB7C9B001A44BB7C9B0203F4406369
:10491000134401333B6297F82E30093B3A6A9A40C0
:104920003B681A60002387F82F30CEE0714B1B786C
:1049300003F00403002B33D000218D20FFF7E0FCAF
:104940000346002B40F0C380FF216B48FFF7B4FB08
:1049500007F10C0310211846FFF76AFC0346002BF1
:1049600000F0B580302387F82E3008E0FF21624840
:10497000FFF7A2FB97F82E30013B87F82E3097F80F
:104980002E30002BF2D1BB7D1B09DBB21A4610235F
:1049900003FA02F23B681A60002387F82F3096E092
:1049A00000210920FFF7ACFC0346002B40F08F806C
:1049B00007F10C0310211846FFF73AFC0346002BC1
:1049C00000F085804B4B1B7803F00203002B12D0C4
:1049D000BB7D5B0003F07E03FA7DD209D2B21344A3
:1049E0005A1C7B7E9B09DBB2013B02FA03F31A4699
:1049F0003B681A6012E0BB7D9B1003F01F0301337C
:104A0000FA7DD20002F01802F97D4909C9B20A44C0
:104A1000013202FB03F31A463B681A60002387F851
:104A20002F3054E0334B1B7803F00603002B50D09B
:104A300007F10C0319460B20FFF7EEFE0346002B8F
:104A400049D13B7B9B09DBB2002B04D1BB7D03F03A
:104A50004003002B41D03B68FB61FB691B68BB62D4
:104A6000FB695B687B62234B1B7803F00803002B18
:104A700005D1BB6A5B02BB627B6A5B027B62B96A7F
:104A80002020FFF73DFC0346002B28D1796A212026
:104A9000FFF736FC0346002B21D100212620FFF72B
:104AA0002FFC0346002B1AD147F23050FFF772FB60
:104AB0000346002B13D0002387F82F300FE0042388
:104AC00087F82F300CE000BF0AE000BF08E000BF0D
:104AD00006E000BF04E000BF02E000BF00E000BF4E
:104AE000FFF77AFB97F82F3018463037BD4680BD68
:104AF0004C010020110B00200030014080B584B033
:104B000002AF78600B46FB70F978002301934FF4F5
:104B10008273009320230022034800F095F800BF21
:104B20000837BD4680BD00BF0030014080B487B06B
:104B300000AFF860B9607A60FB681B889BB203F035
:104B40004003002B31D000BFFB681B899BB203F0F0
:104B50000303002BF8D0FB681B899BB203F0800392
:104B6000002BF1D100237B611AE0BA687B69134402
:104B70001B789AB2FB689A8100BFFB681B899BB2C5
:104B800003F00303002BF8D0FB681B899BB203F0F2
:104B90008003002BF1D1FB689B897B6901337B612A
:104BA0007A697B689A42E0D300E000BF1C37BD46BB
:104BB00080BC704780B487B000AFF860B9603B60DC
:104BC0001346FB71FB681B889BB203F04003002B6C
:104BD00034D000BFFB681B899BB203F00303002B9A
:104BE000F8D0FB681B899BB203F08003002BF1D146
:104BF00000237B611DE0FB799AB2FB689A8100BFBC
:104C0000FB681B899BB203F00303002BF8D0FB6801
:104C10001B899BB203F08003002BF1D1BA687B693A
:104C20001344FA68928992B2D2B21A707B69013346
:104C30007B617A693B689A42DDD300E000BF1C3794
:104C4000BD4680BC704700BF80B588B000AF7860BB
:104C5000084611461A460346FB700B46BB701346C6
:104C60003B8007F10C03184606F0D6FF274A274B76
:104C70005B6C43F480535364FB78184600F048F8AB
:104C800000233B823B883B830023BB81BB8D7B831E
:104C90003B8DFB814FF40073FB82BB78002B04D16A
:104CA00000237B820023BB8216E0BB78012B04D15A
:104CB00000237B820123BB820EE0BB78022B04D150
:104CC00002237B820023BB8206E0BB78032B03D147
:104CD00002237B820123BB827B681B889BB223F06B
:104CE00040039AB27B681A8007F10C031946786872
:104CF00006F04EFF7B681B889BB243F040039AB2DC
:104D00007B681A8000BF2037BD4680BD0038024056
:104D100080B584B002AF0346FB71FB79002B09D14B
:104D2000052301930323009300230022E02103487D
:104D300000F0DAFC00BF0837BD4680BD000002402D
:104D400080B500AF01214020FEF7BEFF012006F034
:104D500087FF00BF80BD00BF80B582B000AF00F00C
:104D600065F878607B68B3F1FF3FF8D07B68DAB212
:104D7000214B9A7100F05AF878607B68B3F1FF3FDD
:104D8000F8D07B68DAB21C4B5A7100F04FF87860AB
:104D90007B68B3F1FF3FF8D07B68DAB2164B1A712B
:104DA00000F044F878607B68B3F1FF3FF8D07B688F
:104DB000DAB2114B5A7000F039F878607B68B3F1C1
:104DC000FF3FF8D07B68DAB20B4B9A7000F02EF8F8
:104DD00078607B68B3F1FF3FF8D07B68DAB2064BAE
:104DE000DA70054B0122DA71002001F055F800BF9E
:104DF0000837BD4680BD00BF800C002080B582B062
:104E000000AF7860084B1B78002B05D10022796831
:104E10000020FDF7A5FE02E07868FCF791FF00BFD7
:104E20000837BD4680BD00BF150F002080B582B099
:104E300000AF3B4619460020FDF7DCFE0346002B81
:104E40000ED13B4605211846FCF790FF0346002B88
:104E500002D14FF0FF330BE0074B01221A7002E042
:104E6000054B00221A703B46184608F099FC034691
:104E700018460837BD4680BD150F002080B582B0AA
:104E800000AFFFF7D3FF78607B68012B04D12A4B7A
:104E900000221A7001234AE07B68022B04D1264BC2
:104EA00009221A70012342E07B68032B04D1224BB4
:104EB00003221A7001233AE07B68042B04D11E4BB5
:104EC00004221A70012332E07B68052B04D11A4BAF
:104ED00005221A7001232AE07B68062B04D1164BA9
:104EE00006221A70012322E07B6840F6C8529342E2
:104EF00004D1114B08221A70012318E07B68082B9B
:104F000004D10D4B0A221A70012310E07B68092B93
:104F100004D1094B0B221A70012308E07B680A2B8D
:104F200004D1054B14221A70012300E00023184617
:104F30000837BD4680BD00BF140F002080B5ADF519
:104F4000147D00AF0023C7F84C323B4601221349C1
:104F5000184605F099FD3B460021184606F046FA32
:104F60000BE03A4607F509732821184606F05AFD6A
:104F7000D7F84C320133C7F84C323B469A683B466F
:104F8000DB689A42EDD13B46184606F013FAD7F893
:104F90004C32184607F51477BD4680BD9C260108A3
:104FA00080B588B000AF01F093FD01F0F5FA012063
:104FB00001F066FBFCF782FB00F014FFFCF7FAFD42
:104FC00000F01CFD01F068F8FCF742FAFFF7B8FEAC
:104FD00007F0CCFF6B4B00221A7000F0EBFA0120B7
:104FE00001F02EFB0023FB610023BB610122664917
:104FF000664805F005FD04226549664805F044FD54
:105000000346082B60D00020FDF7E4FB012001F0EF
:1050100037FB604806F0CEF95F4B00221A60002291
:105020005E490020FDF79CFD18E0012001F028FBFF
:10503000594B1B685A4A93420AD9FB690133FB61F9
:10504000002256490020FDF78BFD534B00221A60C9
:10505000FB69042B02DD0023FB6103E0494B1B7855
:10506000002BE2D0012001F0EBFA0120FDF7B2FBAA
:105070004FF4FA60FCF75AFB474B00221A600022FB
:1050800048490020FDF76CFD15E0012001F0F8FA19
:10509000414B1B68424A93420AD9FB690133FB61C9
:1050A000002240490020FDF75BFD3B4B00221A60C7
:1050B000FB69042B04DC334B1B78002BE5D000E0AC
:1050C00000BF012001F0BCFA0120FDF783FB0A229A
:1050D0003549304805F0D8FC0346002B28D12D4B2C
:1050E000DB68032B24D80023002200217B2000F062
:1050F000A7FA3B1D184601F045F87B7BBB2BF2D18C
:10510000BB7B1B02FA7B13441B023A7C13441B0239
:105110007A7C1344BB61BA692449254808F0D8FE5B
:105120001C49244806F0FAFC1A49214806F0F6FC0E
:10513000184806F03FF900221F49164805F0A4FC64
:105140000346002B03D01D4B00221A7005E01B4BB9
:1051500001221A700F4806F02DF901220A49002099
:1051600005F04EFC164B00221A600B4B00221A6011
:10517000144B00221A70144B00221A7000BF203703
:10518000BD4680BD080F0020AC260108D40C0020CD
:10519000B026010890180020880C0020C0260108C5
:1051A00080841E00CC260108E0260108F0260108B4
:1051B000200F0020F42601080C270108C41100204C
:1051C0001C0F0020640F00208C180020F0B599B04F
:1051D00006AF0A213C48FCF7A3F90346184608F03D
:1051E00047F84FF00002394B08F0D2F903460C465D
:1051F000184621464FF00002354B08F09FF8034651
:105200000C46184621464FF00002324B08F096F843
:1052100003460C46C7E910342F4BDB6819462E486D
:1052200006F0E4F82D4B1B6838462D4A402108F063
:1052300001FE2A4B00221A603B462749184606F019
:105240006DFC284B1B68184608F012F84FF000025E
:10525000254B08F09DF903460C461D462646234B78
:105260001B68184608F004F84FF000021E4B08F0C7
:105270008FF903460C46194622463846D7E91034C2
:10528000CDE90434CDE90212CDE90056184A402197
:1052900008F0D0FD3B461049184606F03FFC154B80
:1052A0001B680133134A1360124B1B68B3F5167F5A
:1052B00005DB094805F0DAFF0E4B00221A6000BF3B
:1052C0004C37BD46F0BD00BF002001400000B0409B
:1052D0000000084000004840A00F0020880C00207B
:1052E0001C270108180F002000408F40600F00208D
:1052F00024270108140B0020F0B5A1B004AF01234E
:10530000FB66002000F068FE4B4B1B791D464A4BA4
:105310005B791E46484B9B7903F5FA63464A5278FF
:105320001146454A92781446434AD27807F128003C
:10533000039202940191009333462A463F4908F0B4
:10534000C7FD01223E493F4805F05AFB04223E4971
:105350003E4805F099FB0346082B04D102223A4946
:105360003A4805F091FB394BDB68052B05D9FFF76F
:10537000E5FDF866FB6E0133FB6607F1440007F1BB
:1053800028030093FB6E324A282108F053FD2F4B6F
:10539000DB6819462D4806F029F807F144032B492C
:1053A000184606F0BBFB294806F004F801222949FB
:1053B000264805F069FB3B1D244A2321184606F0C8
:1053C00031FB224805F0F6FF07F14403FA6E22494B
:1053D000184608F07DFD07F144030A2219461B48D0
:1053E00005F052FB07F128031849184606F096FB12
:1053F00016491A4806F092FB194B1A68194B19689E
:10540000194B1B6807F1280000930B46174908F059
:105410005FFD07F128030D49184606F07FFB3B1D91
:105420000A49184606F07AFB0849114806F076FB4F
:1054300000BF7437BD46F0BD800C00203C2701083A
:10544000AC260108D40C00209C260108A00F0020E7
:105450005C270108E0260108682701087027010879
:10546000107AFF1F147AFF1F187AFF1F7427010894
:105470009C27010880B590B000AF00233B7100234A
:10548000FB6314E0124AFB6B13441B781A4607F1C6
:1054900038031049184608F01BFD07F138023B1D80
:1054A0001146184608F03AFDFB6B0133FB63FB6BBA
:1054B0000F2BE7DD0848FFF7A1FC3B1D1846FFF75F
:1054C0009DFC0648FFF79AFC00BF4037BD4680BDF3
:1054D000C8110020BC270108C42701087027010853
:1054E00090B585B000AF4FF486633B6008233B71F5
:1054F00000237B71294B1B78002B02D00123BB7149
:1055000001E00023BB71264B1B68184607F0B0FE74
:105510004FF00002234B08F03BF803460C461846B8
:1055200021464FF00002204B08F032F803460C46AB
:105530001846214608F014F90346DBB2FB711B4BF9
:105540001B68184607F094FE4FF00002154B08F058
:105550001FF803460C461846214608F001F9034699
:10556000DBB23B72124B1B68184607F081FE4FF00E
:1055700000020C4B08F00CF803460C461846214676
:1055800008F0EEF80346DBB27B723B460FCB00F02F
:1055900049FA00BF1437BD4690BD00BF640F00201C
:1055A000180F002000408F4000001040600F0020C6
:1055B0000C0F002080B500AF002301220021342011
:1055C00000F03EF8052300220221202000F038F8E8
:1055D000052300220221212000F032F88823132223
:1055E0000221242000F02CF8002300220021222098
:1055F00000F026F8002300220021232000F020F8EC
:10560000002300220021252000F01AF800230022A8
:105610000021262000F014F800230022002127207A
:1056200000F00EF8002300220021322000F008F8DC
:10563000002301220121342000F002F800BF80BDC8
:1056400090B587B000AF0446084611461A46234677
:10565000FB710346BB710B467B7113463B710823FC
:105660003B7340F21143BB60FB797B73BB79BB7327
:105670007B79FB733B793B7400237B740023BB7401
:105680000023FB7400233B7507F108030FCB00F0E8
:1056900017FD0520FCF74AF800BF1C37BD4690BD3A
:1056A00080B584B002AF7860084611461A460346BA
:1056B0007B800B467B7013463B707B88002B0ED0A3
:1056C000786800F075F838787A7879883B7D0193AE
:1056D0003B7C00930346786800F082F800E000BF4E
:1056E0000837BD4680BD00BF80B586B002AF786088
:1056F000084611461A4603467B800B467B701346CC
:105700003B707B88002B3ED0786800F051F8002376
:10571000FB6029E07A88FB6842FA03F303F0010397
:10572000002B1DD0FB68DA08FB68D9087B680831BC
:1057300053F82130F96801F0070189000F2000FAC1
:1057400001F1C9430B40387FF96801F00701890076
:1057500000FA01F119437B68083243F8221000E097
:1057600000BFFB680133FB60FB680F2BD2D97A784E
:1057700079883B7E01933B78009313460222786838
:1057800000F02EF800E000BF1037BD4680BD00BF1E
:1057900080B483B000AF78607B6803F13F4303F5CA
:1057A0007E039B0A9BB218460C37BD4680BC7047EF
:1057B00080B582B000AF78607868FFF7E9FF0346F4
:1057C0001A46012303FA02F1044A044B1B6B0B43F4
:1057D000136300BF0837BD4680BD00BF00380240DC
:1057E00080B584B000AF7860084611461A4603467B
:1057F0007B800B467B7013463B707868FFF7C8FFD1
:105800000346BB730023FB7367E07A88FB7B42FA95
:1058100003F303F00103002B5BD0BB7BBA7B32495F
:1058200031F8122011B2FA7B012000FA02F212B212
:105830000A4312B291B22C4A22F813107B68DB683B
:10584000FA7B5200032101FA02F2D2431340397E5F
:10585000FA7B520001FA02F21A437B68DA607B6835
:105860001A68FB7B5B00032101FA03F3DB4313405F
:105870007978FA7B520001FA02F21A437B681A60C7
:105880007B78012B02D07B78022B23D17B685B686D
:10589000FA7B012101FA02F292B2D2431A4039781E
:1058A000FB7B01FA03F39BB21A437B685A607B6867
:1058B0009A68FB7B5B00032101FA03F3DB4313408F
:1058C000397FFA7B520001FA02F21A437B689A6030
:1058D00000E000BFFB7B0133FB73FB7B0F2B94D9F4
:1058E00000BF1037BD4680BD180B002080B483B0C8
:1058F00000AF03463960FB713B6812221A80034BEC
:1059000018460C37BD4680BC704700BF6C010020B4
:1059100080B483B000AF03463960FB713B6804225A
:105920001A80034B18460C37BD4680BC704700BF39
:105930008C01002080B582B000AF03463960FB7156
:105940003A680449044801F073FE024B18460837D0
:10595000BD4680BD501B0020D027010880B582B015
:1059600000AF03463960FB713A680449044801F00E
:105970005FFE024B18460837BD4680BD501B002015
:10598000F427010880B582B000AF03463960FB718F
:105990003A680449044801F04BFE024B18460837A8
:1059A000BD4680BD501B00200828010880B582B08C
:1059B00000AF03463960FB713A680449044801F0BE
:1059C00037FE024B18460837BD4680BD501B0020ED
:1059D0001828010880B582B000AF03463960FB711A
:1059E0003A680449044801F023FE024B1846083780
:1059F000BD4680BD501B00202428010880B500AFA3
:105A0000074B1B78002B09D100F06EF800F080F8EE
:105A100000F0C2F8024B01221A7000E000BF80BD06
:105A20002E0B002090B587B000AF3C4684E80F00F5
:105A30003B68B3F5006F01D300234CE03B79082BA2
:105A400001D9002347E03B68254A1360244B00221C
:105A50005A60234B00225A72214B00221A723A7963
:105A60001F4B9A720023FB750DE0FB7DFA7D07F159
:105A700018010A4412F8131C194A13440A46DA7230
:105A8000FB7D0133FB753B79FA7D9A42EDD3002310
:105A90003B6107E03B6901333B613B6941F288327E
:105AA000934212D80F4B9B6803F08063002B0DD1FB
:105AB0000C4B9B6803F00063002B07D1094B9B68DC
:105AC00003F08053002BE5D000E000BF04490548F7
:105AD000FCF76CFB012318461C37BD4690BD00BF88
